:020000040800F2
:1000000008050020010100081F180008DB16000881
:100010001D180008A9070008A51A00080000000024
:10002000000000000000000000000000231800088D
:10003000AB07000800000000211800082518000880
:100040001B0100081B0100081B0100081B01000820
:100050001B0100081B010008AD070008B3070008DA
:10006000B9070008BF070008C50700081B01000802
:100070001B0100081B0100081B0100081B010008F0
:100080001B0100081B0100081B0100081B010008E0
:100090001B0100081B0100081B010008CB0700081A
:1000A0001B0100081B0100081B0100081B010008C0
:1000B0001B0100081B0100081B0100081B010008B0
:1000C0001B0100081B0100081B0100081B010008A0
:1000D0001B010008991A00081B0100081B010008F9
:1000E0001B0100081B0100081B010008DFF80CD0F1
:1000F00000F0C8FA00480047BD23000808050020AA
:100100000648804706480047FEE7FEE7FEE7FEE7B1
:10011000FEE7FEE7FEE7FEE7FEE7FEE779180008E8
:10012000ED000008202A04DB203A21FA02F0002129
:10013000704721FA02F3D040C2F1200291400843F7
:1001400019467047D2B201E000F8012B491EFBD2DC
:1001500070470022F6E710B513460A4604461946D2
:10016000FFF7F0FF204610BD30B480EA010202F034
:10017000004530F0004221F0004015D0A0B1C0F39E
:10018000C753C2F3C754C2F31601C0F31600E41AF2
:1001900041F4000140F400027D34914201D3641C1B
:1001A00000E04900002C02DA30BC002070474FF418
:1001B00000000023914201D3891A034340084FEA0B
:1001C0004101F7D151B1914202D14FF0004105E018
:1001D00002D24FF0010101E06FF0010103EBC450C6
:1001E000284430BC00F063B8C10F80EAE0700844D6
:1001F000CA079623002100F063B800F0004230F0F7
:1002000000400AD0C10D01F56071C0F3160042EA4A
:100210000151C20840071143704700200146704752
:1002200030B50B46014600202022012409E021FAC6
:1002300002F59D4205D303FA02F5491B04FA02F5C3
:100240002844151EA2F10102F1DC30BD2DE9F05F5A
:100250000546002092469B46884606468146402435
:100260001BE02846414647462246FFF75BFF5346C0
:100270005A46C01A914110D311461846224600F042
:1002800013FA2D1A67EB01084F4622460120002180
:1002900000F00AFA17EB00094E41201EA4F10104F8
:1002A000DFDC484631462A464346BDE8F09F002938
:1002B000A8BF7047401C490008BF20F001007047EC
:1002C00010B4B0FA80FC00FA0CF050EA010404BF4C
:1002D00010BC704749B1CCF1200421FA04F411FAA2
:1002E0000CF118BF012121430843A3EB0C01CB1DE6
:1002F0000106000A002BBEBF002010BC704700EBB7
:10030000C35010440029A4BF10BC7047401C4900D2
:1003100008BF20F0010010BC70472DE9FE4F804659
:1003200081EA0300C00F0C46009021F0004123F049
:100330000045B8EB0200A94105D24046214690464F
:100340001C460B46024623F00040104304D14046B1
:10035000214603B0BDE8F08F270DC7F30A00C3F3B1
:100360000A510290401A0190402866DAC3F3130044
:1003700040F4801B0098924620B10023D2EB030A80
:1003800063EB0B0B01985946C0F14002504600F058
:100390008BF906460D4650465946019A00F093F9EE
:1003A00010EB08006141002487EA115284EAE773E8
:1003B0001A433BD0009A3AB3019A012A4FEA0752F6
:1003C00010DC001B61EB02014FF0004202EA075211
:1003D000CDE90042001C41F5801132462B4600F069
:1003E00091F9B6E7001B61EB0201001C41F5801397
:1003F00000185B412018A2F5001747EB030140EA03
:10040000D570B6196D4111E06D084FEA360645EA20
:10041000C0754FEA0752001B61EB0201001C41F559
:10042000801149084FEA30000019514132462B46ED
:1004300003B0BDE8F04F00F058B900980122400029
:100440000023D0EB020263EBE073009821464FEAF1
:10045000E074B8EB000061EB0401E9E783F00043CE
:100460005BE781F0004158E72DE9FE4F81EA030484
:1004700004F0004421F0004100944FF0000B23F001
:10048000004350EA010402D052EA030404D10020E0
:10049000014603B0BDE8F08FC3F30A54C1F30A5517
:1004A0002C44A4F2F3340194A0FB0254C1F31301D1
:1004B00041F48011C3F3130343F4801301FB02449E
:1004C00000FB034E840A970A44EA815447EA8357A3
:1004D000A4FB076802958D0A05FB07854FEA932C5C
:1004E00004FB0C542705029D4FEA065847EA1637CD
:1004F000B5EB08056EEB070C870E920E47EA8117E5
:1005000042EA8312A7FB0201B6EB0B0164EB000485
:100510002B0D43EA0C335E1844EB1C50DA4651466F
:10052000E7FB0201C5F313044FEA0B3343EA14530C
:100530004FEA0432019C43EA0603A4F10C0402943E
:10054000009CCDE900B400F0DDF8A2E72DE9F04D04
:1005500081EA030404F0004B21F0004514464FF0FB
:10056000000A23F0004150EA050220D054EA0102BB
:100570001DD0C5F30A570246C5F31303C1F3130098
:10058000C1F30A5640F4801543F48013A7EB060824
:10059000101BD64608F2FD3873EB050002D308F1B4
:1005A000010801E092185B41B8F1000F03DA002066
:1005B0000146BDE8F08D00204FF4801106468446C8
:1005C0000EE0171B73EB050705D3121B63EB050346
:1005D00006434CEA010C49084FEA300092185B418F
:1005E00050EA0107EDD152EA030012D082EA04007A
:1005F00083EA0501084303D100224FF0004308E0DD
:10060000101BAB4102D20122002302E06FF0010275
:1006100053101AEB06004CEB085110EB0A0041EBAB
:100620000B01BDE8F04D00F060B8C1F30A52C1F310
:10063000130140F2FF3341F480119A4202DA0020A4
:100640000146704740F233439A42A2F2334202DC41
:100650005242FFF767BD00F027B8000030B500290F
:1006600004DB4FF00044404264EB0101002B04DB4B
:100670004FF00044524264EB0303994208BF90429A
:1006800030BD0000064C074D06E0E06840F0010375
:1006900094E8070098471034AC42F6D3FFF72AFDE0
:1006A000EC2300080C240008202A04DB203A00FA7E
:1006B00002F1002070479140C2F1200320FA03F3B9
:1006C000194390407047202A06DBCB17203A41FAA5
:1006D00002F043EAE07306E041FA02F3D040C2F1CF
:1006E0002002914008431946704710B5002B08DAE4
:1006F000401C41F1000192185B411A4301D120F0E6
:10070000010010BD2DE9F04D92469B4611B1B1FAA2
:1007100081F202E0B0FA80F220329046FFF7C4FF87
:1007200004460F4640EA0A0041EA0B0153465A4686
:10073000084303D120463946BDE8F08D114653EAFF
:10074000010015D0C8F140025046FFF7EBFC05460A
:100750000E46504659464246FFF7A6FF084301D0D1
:10076000012000E00020054346EAE0762C433743B1
:100770000A984FEA4453A0EB08004FEAD4240A3009
:100780004FF0000244EA47544FEAD72502D5002033
:100790000146D1E7010510196941DDE90845001955
:1007A0006941BDE8F04DA0E7FEE77047012000F089
:1007B0004BB9022000F048B9042000F045B90820E8
:1007C00000F042B9102000F03FB910B5202000F031
:1007D0003BF9402000F038F9BDE81040802000F0DF
:1007E00033B972B6FEE7000010B590F8211000246E
:1007F000022903D00421816301243DE001680A68D5
:1008000022F00E020A6001680A6822F001020A6002
:100810001A4A0168914201D1012121E0174A14329C
:10082000914201D110211BE0144A2832914201D19A
:10083000891515E0114A3C32914201D189140FE02B
:100840000E4A5032914202D14FF4803108E00B4AF7
:100850006432914202D14FF4801101E04FF0807177
:10086000064A083A5160012180F82110002180F8E1
:100870002010416B01B18847204610BD080002409E
:100880007CB5364C01280ED0022812D0042819D08D
:1008900008281DD0102821D0202827D0402830D06B
:1008A000802836D051E06068401C606062682CA1EE
:1008B00004E06068401E6060626831A1384801F061
:1008C000F3F841E0A068401CA060A26835A1F5E7FC
:1008D000A068401EA060A2683AA1EFE76068A16826
:1008E00008440090A36862683EA106E06068A168C1
:1008F000401A0090A36862683EA1294801F0D4F82C
:1009000022E06068A16848430090A36862683DA146
:10091000F3E7A068A0B1A068FFF766FC0546606831
:10092000FFF762FC2946FFF71FFCFFF766FCCDE9E5
:100930000001A368626837A1194801F0B5F803E027
:1009400039A1174801F0B0F82080228802B014497C
:10095000BDE870403B4800F0A0BE00000000002051
:100960006C69637A62615F312B2B3B0A0D6C6963A2
:100970007A62615F31203D2025640A0D000000008D
:100980006C69637A62615F312D2D3B0A0D6C69637E
:100990007A62615F31203D2025640A0D000000006D
:1009A0001C0000206C69637A62615F322B2B3B0A6A
:1009B0000D6C69637A62615F32203D2025640A0D07
:1009C000000000006C69637A62615F322D2D3B0A82
:1009D0000D6C69637A62615F32203D2025640A0DE7
:1009E000000000002564202B202564203D20256484
:1009F0000A0D00002564202D202564203D2025645B
:100A00000A0D00002564202A202564203D2025644D
:100A10000A0D00002564202F202564203D20252E6E
:100A200033660A0D000000004E696520776F6C6E1A
:100A30006F20647A69656C69632070727A657A20C8
:100A4000300A0D00C8000020044910B50A680242AF
:100A500002D00860FFF714FF10BD0000140401402D
:100A60002DE9F84FDFF8B091002409F1040A0AF1EA
:100A7000040B23460F270BF1040EC6E00125A54009
:100A80002A40AA4276D1DFF894C14E68A6EB0C0842
:100A900066452BD00DDC032E34D005DC36B3012E99
:100AA00019D0022E2FD11BE0112E16D0122E2AD1D2
:100AB00019E0B8F5881F19D006DCB8F5803F15D0CD
:100AC000B8F5801F1FD111E0B8F5001F0ED0B8F5A2
:100AD000041F18D10AE0CB6815E0CB681B1D12E09B
:100AE000CB6808330FE0CB680C330CE08B682BB17C
:100AF000012B4FF0080303D0456104E0042302E01A
:100B0000056100E00023FF2A01D8064601E000F15C
:100B100004064FEA840501D9A5F12005D6F8008026
:100B200007FA05FC28EA0C0803FA05F548EA050867
:100B3000C6F800804D68ED0066D5394DAE6946F0C7
:100B40000106AE61AD6924F0030605F001050095CC
:100B5000344D06EB050CDCF80850A607360F07FAF3
:100B600006F825EA0805DFF8C080404503D14FF0BC
:100B7000000817E048E0DFF8B480404502D14FF0AC
:100B800001080FE0DFF8A880404502D14FF00208CD
:100B900008E0DFF8A080404502D14FF0030801E0F3
:100BA0004FF0040808FA06F848EA0508CCF808806F
:100BB0004D68D9F80060ED03002D4D4601DA16436B
:100BC00000E096432E604D68DAF80060AD03002D1A
:100BD000554601DA164300E096432E604D68DBF877
:100BE0000060ED02002D5D4601DA164300E09643F9
:100BF0002E604D68DEF80060AD02002D754601DA0A
:100C0000164300E096432E60641C0A6832FA04F52D
:100C10007FF434AFBDE8F88F0004014000001110EC
:100C2000001002400000014000080140000C01409B
:100C30000010014000140140014880687047000026
:100C40000C000020024881680278114481607047DE
:100C50000C000020074810B5016841F01001016048
:100C6000032000F075F8002000F006F800F024F8EA
:100C7000002010BD0020024070B50D4D04464FF419
:100C80007A712878B1FBF0F00A490968B1FBF0F0FD
:100C900000F0F4FA48B9102C07D200222146501E69
:100CA00000F036F800206C6070BD012070BD0000BF
:100CB0000C000020180000200C4808B5816941F0A4
:100CC00001018161816901F001010091C16941F077
:100CD0008051C161C06900F08050009004484168B3
:100CE00021F0E06141F08061416008BD00100240E8
:100CF0000000014000280ADB00F01F0201219140A2
:100D000040094FF0E02202EB8000C0F8001170476C
:100D1000F0B40E4B1B680C46C3F30223C3F1070566
:100D2000042D00D90425191D072901D2002300E054
:100D3000DB1E012606FA05F1491E214099409E401E
:100D4000761E16403143F0BC00F0C2BE0CED00E050
:100D5000064900F0070208684FF6FF03184040EA12
:100D60000220034A10430860704700000CED00E0C9
:100D70000000FA052DE9F0470F46050061D0434E0B
:100D8000306800F00700B84209D2306820F0070050
:100D900038433060306800F00700B84251D128680D
:100DA0003B4C810712D5400703D5606840F4E060F2
:100DB00060602878000703D5606840F46050606088
:100DC0006068A96820F0F000084360602878C007D8
:100DD00028D06868012810D02168022810D089071F
:100DE00000292EDA616821F0030101436160FFF7F9
:100DF00023FF804641F288390DE021688903EFE73F
:100E00008901EDE7FFF718FFA0EB0801494502D97A
:100E10000320BDE8F0876068696800F00C00B0EB63
:100E2000810FEFD1306800F00700B8420BD930686D
:100E300020F0070038433060306800F00700B84207
:100E400001D00120E5E72878400705D56068E9680A
:100E500020F4E060084360602878000706D56068E9
:100E6000296920F4605040EAC100606000F038F861
:100E70006168084AC1F30311515CC8400649086023
:100E800006480068FFF7F8FE0020C2E70020024095
:100E900000100240D223000818000020100000209B
:100EA0000448054900684968044AC1F30221515CBD
:100EB000C84070471800002000100240E2230008DC
:100EC0000448054900684968044AC1F3C221515CDD
:100ED000C84070471800002000100240E2230008BC
:100EE00014A185B0D1E90023D1E90201CDE90201C5
:100EF00014A0CDE90023144A0068049051681348F7
:100F000001F00C03042B10D0082B0ED1C1F3834346
:100F1000C9031DF803000AD5516804AAC1F3404172
:100F2000515C0A4A5043B0FBF1F005B070470849E4
:100F30004843FAE702030405060708090A0B0C0DEB
:100F40000E0F1010010200000010024000127A0083
:100F500000093D002DE9F84F040070D02078C24D03
:100F6000C00749D06868C0F38100012807D06868CD
:100F7000C0F38100022809D16868C00306D528683B
:100F8000800339D560680028E7D035E06068B0F5A7
:100F9000803F0BD010B1B0F5A02F11D0286820F4FD
:100FA00080302860286820F4802002E0286840F41F
:100FB00080302860606890B1FFF73EFE06460AE088
:100FC000286840F480202860F0E700BFFFF734FE77
:100FD000801B642874D828688003F7D50CE0FFF7DD
:100FE0002BFE064605E000BFFFF726FE801B6428A7
:100FF000F0D828688003F7D420789C4E80074FF003
:1010000001094FF0000839D5686810F00C0F07D0BF
:101010006868C0F38100022809D16868C00306D45B
:101020002868800714D52069012808D110E02069BC
:10103000B0B1C6F80090FFF7FFFD074605E00EE1EE
:10104000FFF7FAFDC01B0228C4D828688007F7D52F
:101050002868616920F0F80040EAC10028600DE0CE
:10106000C6F80080FFF7E8FD074604E0FFF7E4FD5F
:10107000C01B0228AED828688007F7D42078000764
:101080002ED57B48A169E1B1C0F80090FFF7D4FDEF
:10109000074604E0FFF7D0FDC01B022810D8686A9D
:1010A0008007F7D573484FF4FA510068B0FBF1F0B0
:1010B000009000BF0098411E00910028F9D10FE078
:1010C00082E0C0F80080FFF7B7FD074605E000BFEB
:1010D000FFF7B2FDC01B022876D8686A8007F7D4F4
:1010E0002078400761D5E8690027C00008D4E86986
:1010F00040F08050E861E869012700F080500090DE
:101100005D480168C90513D40168834641F48071C4
:101110000160FFF791FD824606E000BFFFF78CFDFE
:10112000A0EB0A0064284FD8DBF80000C005F5D515
:10113000E06801280AD008B1052813D0286A20F0F9
:1011400001002862286A20F0040002E0286A40F0CA
:1011500001002862E06841F2883B98B1FFF76CFD1E
:1011600082460BE0286A40F004002862EEE700BFE8
:10117000FFF762FDA0EB0A0159455CD8286A800799
:10118000F6D50CE0FFF758FD824605E0FFF754FD69
:10119000A0EB0A0159454ED8286A8007F6D4012FE2
:1011A00003D1E86920F08050E861E06990B3696894
:1011B000C1F38101022945D00228C6F8608004D01D
:1011C000FFF73AFD044639E035E0FFF735FD074605
:1011D00005E000BFFFF730FDC01B02282BD82868B0
:1011E0008001F7D4206AB0F5803F05D16868A16816
:1011F00020F4003008436860D4E9080108436968B6
:1012000021F4741108436860C6F86090FFF714FD7C
:10121000044606E025E000BFFFF70EFD001B022894
:1012200009D828688001F7D51BE000BFFFF704FD4F
:10123000001B022802D90320BDE8F88F286880012E
:10124000F4D40EE00128F7D06868226A00F48031F7
:10125000914204D1616A00F47010884201D00120EB
:10126000EAE70020E8E700000010024000004242E8
:1012700080044242180000200070004010B5401E5B
:10128000B0F1807F01D3012010BD4FF0E0246061F8
:101290000F21601700F01CFC0020A06107202061D6
:1012A000002010BD70B590F83C20012A25D0012403
:1012B00080F83C40022280F83D2003685A689D680F
:1012C00022F070060A6832435A600D4B02689A4257
:1012D00008D0B2F1804F05D00A4B9A4202D00A4B97
:1012E0009A4204D1496825F08003194391603C304B
:1012F000447000210170084670BD022070BD0000DE
:10130000002C0140000400400008004010B504001B
:1013100003D094F83D0010B107E0012010BD00207B
:1013200084F83C00204600F015F8022084F83D00C7
:10133000211D206800F0A2FA01203D346072607027
:10134000A070E07020716071A071E0712072207057
:10135000002010BD08B500680649884208D106483B
:10136000C16941F00201C161C06900F00200009052
:1013700008BD0000000400400010024070B50446A3
:1013800090F83C00012817D0012584F83C50022039
:1013900084F83D002068826822F0770222F47F42C0
:1013A00082600868502830D00DDC20284CD005DC45
:1013B00098B310283BD147E0022070BD302843D0BD
:1013C000402834D138E0602828D0702806D0B0F505
:1013D000805F2CD0B0F5005F29D10AE04A6808315F
:1013E00020680AC900F080FA2068816841F077011E
:1013F00009E04A68083120680AC900F075FA2068D7
:10140000816841F48041816011E0CA6849682068C0
:1014100000F07CFA5021206807E015E0CA684968AE
:10142000206800F084FA6021206800F067FA3C34FC
:1014300065700020207070BDCA684968206800F09F
:1014400065FA40212068F0E7226801461046ECE783
:101450007047000070B5026804461068D16853698F
:1014600010F00F0F53D003F0010501F490762E43D6
:101470005FD0C20705D0CA0503D5E26B42F0010276
:10148000E263420705D5DA0703D0E26B42F00202BD
:10149000E263820705D5DA0703D0E26B42F004026B
:1014A000E263020707D501F020022A4303D0E26B72
:1014B00042F00802E263E26B002A34D0800604D5D1
:1014C000880602D5204600F05AFA20684069E16B90
:1014D000C0F3801001F008010143204624D000F041
:1014E00040FA2068416949061AD5416921F0400156
:1014F0004161606BA0B12E494163606BFFF774F9E5
:10150000002810D0606B416BBDE87040084783062F
:101510000FD58B060DD52046BDE8704000F02FBAE0
:101520002046FFF795FF70BDFFF792FF0020E063B4
:1015300070BD03062DD50B062BD594F83900212854
:10154000F6D1A068B0F5805F01D12069B8B1206AFA
:10155000411C2162216800784860E08CA0F1010004
:101560000004000CE084E3D12068C16821F0800110
:10157000C1602068C16841F04001C16070BD206A4F
:101580000088C0F308005060206A00F10200206269
:10159000E3E74006F2D54806F0D5D168204621F0B1
:1015A0004001D160202184F8391000F095F870BD19
:1015B0005319000870B5040004D094F839000025D0
:1015C00010B106E0012070BD84F83850204600F0CC
:1015D00023F8242084F839002068C16821F40051E0
:1015E000C160204600F012FA2068016921F49041A0
:1015F00001612068416921F02A0141612068C168C8
:1016000041F40051C160E563202084F8390084F87A
:101610003A00002070BD000030B585B00024009471
:101620000194029403940068184988422CD1184808
:10163000816941F480418161816901F480410491B3
:10164000816941F0040181618069124D00F004005C
:1016500004904FF40070009002200190032003904A
:1016600069462846FFF7FCF92815CDE900046946CC
:1016700028460294FFF7F4F9002211462520FFF7CF
:1016800047FB2520FFF736FB05B030BD0038014091
:101690000010024000080140704790F83930202BBC
:1016A00018D1A9B1A2B190F83830012B12D0016243
:1016B0008284C2840021C163212280F8392080F80D
:1016C00038100068C16841F08001C1600020704797
:1016D00001207047022070477047FEE700B585B0D3
:1016E000002003902248816941F0040181618069F2
:1016F000694600F004000490FF2000901D4801900E
:10170000022002901C48FFF7ABF900221146062088
:10171000FFF7FEFA0620FFF7EDFA00221146072038
:10172000FFF7F6FA0720FFF7E5FA00221146082036
:10173000FFF7EEFA0820FFF7DDFA00221146092034
:10174000FFF7E6FA0920FFF7D5FA002211460A2032
:10175000FFF7DEFA0A20FFF7CDFA00221146172024
:10176000FFF7D6FA1720FFF7C5FA05B000BD000055
:1017700000100240000011100008014010B586B0B2
:10178000002417480094019402940394049413498C
:101790000594016040F2A921C0E901140F21C0E9BC
:1017A00003148461FFF7B2FD08B1FFF71AF84FF494
:1017B0008050009069460A48FFF7E0FD08B1FFF746
:1017C00010F8049404A906480594FFF76BFD00285F
:1017D00001D0FFF706F806B010BD0000000400407D
:1017E000800000200C4810B50A4901604FF4E13137
:1017F0004160002181600C22C160C0E90412816156
:10180000C161FFF7D7FE002803D0BDE81040FEF706
:10181000E8BF10BD00380140C8000020FEE7FEE729
:1018200070477047FFF70EBA10B590B02821684690
:10183000FEF78FFC14210AA8FEF78BFC0220009013
:101840000120049010200024059007946846FFF7BB
:1018500081FB08B172B6FEE70F20CDE90A040C94B3
:101860000D9400210AA80E94FFF784FA002801D0F5
:1018700072B6FEE710B010BD70470000F0B5026808
:10188000164B174C174D4FF08047984205D0B84281
:1018900003D0A04201D0A84203D122F070064A68CA
:1018A0003243984205D0B84203D0A04201D0A842AA
:1018B00003D122F44074CA6822434C6922F08002AA
:1018C000224302608A68C2620A688262984201D139
:1018D0000969016301214161F0BD0000002C014054
:1018E000000400400008004010B5846842EA03226A
:1018F00024F47F440A432243826010BD826822F0B0
:1019000070020A4342F007018160704710B5036A14
:10191000046A24F001040462846924F0F00444EAB7
:10192000021423F00A020A438461026210BD10B55A
:10193000036A23F0100303628369046A23F470438B
:1019400043EA023224F0A00343EA011182610162FA
:1019500010BD10B5406A0021C185C184FFF778FD34
:1019600010BD0168CA6822F49072CA6001684A69B1
:1019700022F001024A61202180F83A10704710B528
:1019800090F83A10222901D0022010BD82684FF44D
:1019900080539A4201D1016921B1816A9A421BD0D8
:1019A0004AB10AE00268816A5268C2F308020A80FA
:1019B000816A891C08E0026972B10268526802F00B
:1019C0007F020A70816A491C8162C18D491E090427
:1019D000090CC18503D016E002685268F1E701687E
:1019E000CA6822F02002CA600168CA6822F48072C4
:1019F000CA6001684A6922F001024A61202180F828
:101A00003A10FFF749FE002010BD000010B5044653
:101A100000680169E26821F44051114301612169C4
:101A2000A0680843616908432168CA6841F20C63F1
:101A30009A430243CA6020684169A26921F4407157
:101A40001143416113492068884202D1FFF738FAF7
:101A500001E0FFF725FA00EBC00101EB001061681F
:101A600064228900B0FBF1F1B1FBF2F06FF01803D2
:101A7000434301EB8303322101EB0311B1FBF2F18C
:101A800001F0F00202EB001001F00F0108442168A0
:101A9000886010BD003801400148FFF7DBBC000042
:101AA000C8000020FEE700000FB4084B10B504A9E1
:101AB00002AA039800F0DAF8044602A9002000F018
:101AC00078FC204610BC5DF814FB0000B32300082E
:101AD0000907090E002801DB034A02E0034A00F06F
:101AE0000F0081547047000000E400E014ED00E0B6
:101AF00002E008C8121F08C1002AFAD170477047D7
:101B0000002001E001C1121F002AFBD17047000034
:101B10002DE9FF5FDDE90220010DDDF838B0024359
:101B200010D10F9801244CA2012808D00021009860
:101B30000F9BC0E90021C0E90243BDE8FF9F6FEAA7
:101B40000B01F4E7A1F2FF3144F6105041430D14AC
:101B50000F9801280ED0A5EB0B00401C4FF000049D
:101B60003E4EDFF8FC90B0F1000AA04605DACAF15B
:101B7000000717E0CBF10000F0E7074612E0F80796
:101B800007D02246334640464946FEF76DFC804664
:101B900089462246334610461946FEF765FC044640
:101BA0000E467F10002FEAD1DDE90201BAF1000FE5
:101BB00042464B4602DAFEF757FC01E0FEF7C6FC50
:101BC00004460E460022274BFEF748FD03D84FF08F
:101BD000FF30014607E00022234B20463146FEF746
:101BE0009CFBFEF722FD102409E0002C0ADB0A22F0
:101BF0000023FEF72BFB019B30321A55641E50EA7E
:101C00000102F2D1641C019AC4F1110314440F9A29
:101C1000012A09D00122084301D15B450FDD4FF0B5
:101C2000000205F101050DE0084303D1A3EB0B050C
:101C30006D1E09E000204FF0110B0F9088E701DACC
:101C400000226D1E002A83D000980F99C0E902314E
:101C5000C0E9004571E700003000000000002440AA
:101C60000000F03F0000F0430000E03F2DE9FF4F8F
:101C700095B09B4689460646002512E2252878D174
:101C80000024761CF94A2746012105943378203B2D
:101C900001FA03F0104202D00443761CF6E73078D4
:101CA0002A2811D06FF02F033078A0F13002092AD2
:101CB00016D8059A44F0020402EB820203EB4202BA
:101CC0001044761C0590EFE759F8042B0592002A82
:101CD00003DA504244F40054059044F00204761CA8
:101CE00030782E2816D116F8010F44F004042A2863
:101CF0000DD06FF02F023078A0F13003092B09D8F6
:101D000007EB870302EB4303C718761CF3E759F888
:101D1000047B761C30786C280FD006DC4C2817D05A
:101D200068280DD06A2814D104E0742810D07A28CD
:101D30000FD10DE044F400140AE044F4801401E0F3
:101D400044F440147278824202D1761C04F5801467
:101D5000761C307866280BD013DC582877D009DC45
:101D6000002875D04528F6D04628F4D047281AD147
:101D70009FE118E0632835D0642879D0652812D116
:101D800097E1702873D008DC6728F1D069286FD0FC
:101D90006E280DD06F2806D1B5E073282CD0752899
:101DA00075D0782874D05A46179990476D1C76E103
:101DB000C4F30250022809D003280DD0D9F800102E
:101DC00004280DD00D6009F1040968E1D9F800106C
:101DD000EA17C1E90052F6E7D9F800100D80F2E7E2
:101DE0000D70F0E719F8041B8DF8001000208DF835
:101DF0000100EA46012003E059F804AB4FF0FF3040
:101E000061074FF0000102D40DE008F1010188469E
:101E1000B9420FDA8045F8DB1AF808100029F4D12E
:101E200008E008F1010188468142FADB1AF808103F
:101E30000029F6D105985B46A0EB080721463846F5
:101E4000179A00F09EFA284400EB080507E04DE0E1
:101E50002BE10DE01AF8010B5A4617999047B8F19B
:101E60000108F7D25B4621463846179A14E142E052
:101E70000A220092C4F302524FF0000A022A08D04C
:101E800059F804CB032A4FEAEC710AD00DE029E09F
:101E90002AE009F1070121F00702F2E802C19146A8
:101EA00009E00FFA8CFC4FEAEC71042A03D14FFAD7
:101EB0008CFC4FEAEC71002907DA0A460021DCF1BC
:101EC000000C61EB02012D2202E0220504D52B2239
:101ED0008DF80420012203E0E20701D02022F7E779
:101EE000904653E00A2102E010220DE010214FF04D
:101EF000000A00910BE010224FF0000A44F00404A5
:101F00000827009203E008224FF0000A0092C4F371
:101F10000252022A05D059F804CB0021032A08D026
:101F200009E009F1070121F00702F2E802C1914638
:101F300005E01FFA8CFC042A01D10CF0FF0C4FF0D5
:101F40000008220722D5702827D0009B83F01003B9
:101F500053EA0A0309D15CEA010206D030228DF867
:101F600004208DF8050002229046009B83F00803B0
:101F700053EA0A030AD15CEA010201D1620705D5DE
:101F800030228DF804204FF001087F1E582809D018
:101F900037A003900EA8029013E040228DF8042091
:101FA0000122E1E737A0F4E753466046009AFEF7C6
:101FB0004DF984460398825C0298A0F101000290DA
:101FC00002705CEA0100EFD1029806A9A1EB0000C3
:101FD00000F1200A600702D524F4803400E00127D4
:101FE000574502DDA7EB0A0000E0002000EB0A01E4
:101FF000009005984144A0EB01000590E00306D451
:102000005B462146179A059800F0BBF90544002766
:1020100006E001A85A46C05D179990476D1C7F1CC9
:102020004745F6DBE0030CD55B462146179A059839
:1020300000F0A7F9054404E030205A46179990476C
:102040006D1C0099481E00900029F5DC08E00298FC
:1020500002995A460078491C0291179990476D1CC5
:10206000BAF10001AAF1010AF1DC6BE109280100D3
:1020700030313233343536373839616263646566FE
:1020800000000000303132333435363738394142C0
:10209000434445460000000000F060F9054406F1A5
:1020A0000106307800287FF4E9AD19B02846BDE874
:1020B000F08F620700D4062709F1070222F0070C0F
:1020C000FCE80223E14603F000485FEA080C02D076
:1020D0000FF27C2C0DE05FEA045C02D50FF2742C49
:1020E00007E05FEAC47C02D00FF26C2C01E0AFF293
:1020F000700C4FF0FF3823F00043CDF850C0652836
:102100000CD006DC452809D046281DD047283ED1F2
:102110003EE0662818D0672839D139E00021112F18
:1021200001DB112000E0781CCDE9000106A90EA812
:10213000FFF7EEFCDDE90F010E9A039100210092FA
:1021400007F1010A04914EE04FF000400097CDE9FD
:10215000011006A90EA8FFF7DBFCDDE90F020392D0
:102160000E9B11990022DDF80CA00093049219B97E
:1021700007F1010100EB010AB7EB0A0004D4C0F13A
:10218000FF3007F1010A0490AAEB0700019046E036
:10219000012F00DA01270021112F01DD112000E0BD
:1021A0003846CDE9000106A90EA8FFF7B1FCDDE92C
:1021B0000F010E9A0391002104910092BA46210763
:1021C0000CD40399514500DA8A46BAF1010F05DDB6
:1021D000009AAAF10101515C302908D0B84202DA14
:1021E00010F1040F06DA0121CDE9011017E0AAF180
:1021F0000101E9E7002805DC049901440491AAEBF8
:10220000000102E0411C514500DD8A460499A0EB23
:10221000010000F1010001904FF000400290200702
:1022200004D40198504501DBCDF8048000208DF8DE
:102230004F0002980DF14F07B0F1004F25D02B2031
:102240000E9002984FF0020800280CDA40420290EB
:102250002D200E9007E00A210298FDF7E1FF3031B2
:10226000029007F8011DB8F10001A8F10108F2DCA5
:1022700002980028EFD1791E0E980870307800F08F
:10228000200040F0450007F8020D12A8A0EB07005F
:1022900000F107081498007800B1012000EB0A0152
:1022A000019801EBE07105984144A0EB0100A0F119
:1022B00001000590E00306D45B462146179A059875
:1022C00000F05FF805441498007820B15A46179939
:1022D000904705F10105E00323D55B462146179A97
:1022E000059800F04EF805441BE00498002807DB31
:1022F000DDE90301884203DD0098405C179901E0A5
:10230000179930205A46904704986D1C401C049041
:102310000198401E019004D12E205A4617999047EB
:102320006D1CBAF10001AAF1010ADEDC05E017F824
:10233000010B5A46179990476D1CB8F10001A8F19E
:102340000108F4DC5B462146179A0598A4E60000D4
:102350002D0000002B000000200000002DE9F041BE
:10236000044600251E461746880405D406E0394673
:102370002020B04705F10105641EF8D52846BDE8C8
:10238000F0812DE9F041044600251E469046C80321
:1023900001D5302700E02027880405D506E0414616
:1023A0003846B04705F10105641EF8D52846BDE85A
:1023B000F0810A68531C0B6010707047FEF74AFCEE
:1023C000FFF732FAFFF78AF9FFF70CFAFFF7D6F9B1
:1023D000FEE7000000000000000001020304060701
:1023E0000809000000000102030400000C2400089A
:1023F000000000201C000000F01A0008282400083B
:102400001C000020EC040000001B0008000000007D
:1024100000000000000000000100000010000000AB
:08242000000000000024F4009C
:04000005080000ED02
:00000001FF
